{
  "address": "0xb45186E02CC4AbC0e390EdFfdc2aBC8D523ea15e",
  "abi": [
    {
      "inputs": [
        {
          "internalType": "address",
          "name": "_endpoint",
          "type": "address"
        },
        {
          "internalType": "uint16",
          "name": "_remoteChainId",
          "type": "uint16"
        },
        {
          "internalType": "address",
          "name": "_weth",
          "type": "address"
        }
      ],
      "stateMutability": "nonpayable",
      "type": "constructor"
    },
    {
      "anonymous": false,
      "inputs": [
        {
          "indexed": false,
          "internalType": "uint16",
          "name": "_srcChainId",
          "type": "uint16"
        },
        {
          "indexed": false,
          "internalType": "bytes",
          "name": "_srcAddress",
          "type": "bytes"
        },
        {
          "indexed": false,
          "internalType": "uint64",
          "name": "_nonce",
          "type": "uint64"
        },
        {
          "indexed": false,
          "internalType": "bytes",
          "name": "_payload",
          "type": "bytes"
        },
        {
          "indexed": false,
          "internalType": "bytes",
          "name": "_reason",
          "type": "bytes"
        }
      ],
      "name": "MessageFailed",
      "type": "event"
    },
    {
      "anonymous": false,
      "inputs": [
        {
          "indexed": true,
          "internalType": "address",
          "name": "previousOwner",
          "type": "address"
        },
        {
          "indexed": true,
          "internalType": "address",
          "name": "newOwner",
          "type": "address"
        }
      ],
      "name": "OwnershipTransferred",
      "type": "event"
    },
    {
      "anonymous": false,
      "inputs": [
        {
          "indexed": false,
          "internalType": "address",
          "name": "token",
          "type": "address"
        },
        {
          "indexed": false,
          "internalType": "address",
          "name": "to",
          "type": "address"
        },
        {
          "indexed": false,
          "internalType": "uint256",
          "name": "amount",
          "type": "uint256"
        }
      ],
      "name": "ReceiveToken",
      "type": "event"
    },
    {
      "anonymous": false,
      "inputs": [
        {
          "indexed": false,
          "internalType": "address",
          "name": "token",
          "type": "address"
        }
      ],
      "name": "RegisterToken",
      "type": "event"
    },
    {
      "anonymous": false,
      "inputs": [
        {
          "indexed": false,
          "internalType": "uint16",
          "name": "_srcChainId",
          "type": "uint16"
        },
        {
          "indexed": false,
          "internalType": "bytes",
          "name": "_srcAddress",
          "type": "bytes"
        },
        {
          "indexed": false,
          "internalType": "uint64",
          "name": "_nonce",
          "type": "uint64"
        },
        {
          "indexed": false,
          "internalType": "bytes32",
          "name": "_payloadHash",
          "type": "bytes32"
        }
      ],
      "name": "RetryMessageSuccess",
      "type": "event"
    },
    {
      "anonymous": false,
      "inputs": [
        {
          "indexed": false,
          "internalType": "address",
          "name": "token",
          "type": "address"
        },
        {
          "indexed": false,
          "internalType": "address",
          "name": "from",
          "type": "address"
        },
        {
          "indexed": false,
          "internalType": "address",
          "name": "to",
          "type": "address"
        },
        {
          "indexed": false,
          "internalType": "uint256",
          "name": "amount",
          "type": "uint256"
        }
      ],
      "name": "SendToken",
      "type": "event"
    },
    {
      "anonymous": false,
      "inputs": [
        {
          "indexed": false,
          "internalType": "uint16",
          "name": "_dstChainId",
          "type": "uint16"
        },
        {
          "indexed": false,
          "internalType": "uint16",
          "name": "_type",
          "type": "uint16"
        },
        {
          "indexed": false,
          "internalType": "uint256",
          "name": "_minDstGas",
          "type": "uint256"
        }
      ],
      "name": "SetMinDstGas",
      "type": "event"
    },
    {
      "anonymous": false,
      "inputs": [
        {
          "indexed": false,
          "internalType": "address",
          "name": "precrime",
          "type": "address"
        }
      ],
      "name": "SetPrecrime",
      "type": "event"
    },
    {
      "anonymous": false,
      "inputs": [
        {
          "indexed": false,
          "internalType": "uint16",
          "name": "remoteChainId",
          "type": "uint16"
        }
      ],
      "name": "SetRemoteChainId",
      "type": "event"
    },
    {
      "anonymous": false,
      "inputs": [
        {
          "indexed": false,
          "internalType": "uint16",
          "name": "_remoteChainId",
          "type": "uint16"
        },
        {
          "indexed": false,
          "internalType": "bytes",
          "name": "_path",
          "type": "bytes"
        }
      ],
      "name": "SetTrustedRemote",
      "type": "event"
    },
    {
      "anonymous": false,
      "inputs": [
        {
          "indexed": false,
          "internalType": "uint16",
          "name": "_remoteChainId",
          "type": "uint16"
        },
        {
          "indexed": false,
          "internalType": "bytes",
          "name": "_remoteAddress",
          "type": "bytes"
        }
      ],
      "name": "SetTrustedRemoteAddress",
      "type": "event"
    },
    {
      "anonymous": false,
      "inputs": [
        {
          "indexed": false,
          "internalType": "bool",
          "name": "useCustomAdapterParams",
          "type": "bool"
        }
      ],
      "name": "SetUseCustomAdapterParams",
      "type": "event"
    },
    {
      "anonymous": false,
      "inputs": [
        {
          "indexed": true,
          "internalType": "address",
          "name": "token",
          "type": "address"
        },
        {
          "indexed": false,
          "internalType": "address",
          "name": "to",
          "type": "address"
        },
        {
          "indexed": false,
          "internalType": "uint256",
          "name": "amount",
          "type": "uint256"
        }
      ],
      "name": "WithdrawFee",
      "type": "event"
    },
    {
      "inputs": [],
      "name": "PT_MINT",
      "outputs": [
        {
          "internalType": "uint8",
          "name": "",
          "type": "uint8"
        }
      ],
      "stateMutability": "view",
      "type": "function"
    },
    {
      "inputs": [],
      "name": "PT_UNLOCK",
      "outputs": [
        {
          "internalType": "uint8",
          "name": "",
          "type": "uint8"
        }
      ],
      "stateMutability": "view",
      "type": "function"
    },
    {
      "inputs": [
        {
          "internalType": "address",
          "name": "token",
          "type": "address"
        }
      ],
      "name": "accruedFee",
      "outputs": [
        {
          "internalType": "uint256",
          "name": "",
          "type": "uint256"
        }
      ],
      "stateMutability": "view",
      "type": "function"
    },
    {
      "inputs": [
        {
          "internalType": "address",
          "name": "token",
          "type": "address"
        },
        {
          "internalType": "uint256",
          "name": "amount",
          "type": "uint256"
        },
        {
          "internalType": "address",
          "name": "to",
          "type": "address"
        },
        {
          "components": [
            {
              "internalType": "address payable",
              "name": "refundAddress",
              "type": "address"
            },
            {
              "internalType": "address",
              "name": "zroPaymentAddress",
              "type": "address"
            }
          ],
          "internalType": "struct LzLib.CallParams",
          "name": "callParams",
          "type": "tuple"
        },
        {
          "internalType": "bytes",
          "name": "adapterParams",
          "type": "bytes"
        }
      ],
      "name": "bridge",
      "outputs": [],
      "stateMutability": "payable",
      "type": "function"
    },
    {
      "inputs": [
        {
          "internalType": "uint256",
          "name": "amount",
          "type": "uint256"
        },
        {
          "internalType": "address",
          "name": "to",
          "type": "address"
        },
        {
          "components": [
            {
              "internalType": "address payable",
              "name": "refundAddress",
              "type": "address"
            },
            {
              "internalType": "address",
              "name": "zroPaymentAddress",
              "type": "address"
            }
          ],
          "internalType": "struct LzLib.CallParams",
          "name": "callParams",
          "type": "tuple"
        },
        {
          "internalType": "bytes",
          "name": "adapterParams",
          "type": "bytes"
        }
      ],
      "name": "bridgeETH",
      "outputs": [],
      "stateMutability": "payable",
      "type": "function"
    },
    {
      "inputs": [
        {
          "internalType": "bool",
          "name": "useZro",
          "type": "bool"
        },
        {
          "internalType": "bytes",
          "name": "adapterParams",
          "type": "bytes"
        }
      ],
      "name": "estimateBridgeFee",
      "outputs": [
        {
          "internalType": "uint256",
          "name": "nativeFee",
          "type": "uint256"
        },
        {
          "internalType": "uint256",
          "name": "zroFee",
          "type": "uint256"
        }
      ],
      "stateMutability": "view",
      "type": "function"
    },
    {
      "inputs": [
        {
          "internalType": "uint16",
          "name": "",
          "type": "uint16"
        },
        {
          "internalType": "bytes",
          "name": "",
          "type": "bytes"
        },
        {
          "internalType": "uint64",
          "name": "",
          "type": "uint64"
        }
      ],
      "name": "failedMessages",
      "outputs": [
        {
          "internalType": "bytes32",
          "name": "",
          "type": "bytes32"
        }
      ],
      "stateMutability": "view",
      "type": "function"
    },
    {
      "inputs": [
        {
          "internalType": "uint16",
          "name": "_srcChainId",
          "type": "uint16"
        },
        {
          "internalType": "bytes",
          "name": "_srcAddress",
          "type": "bytes"
        }
      ],
      "name": "forceResumeReceive",
      "outputs": [],
      "stateMutability": "nonpayable",
      "type": "function"
    },
    {
      "inputs": [
        {
          "internalType": "uint16",
          "name": "_version",
          "type": "uint16"
        },
        {
          "internalType": "uint16",
          "name": "_chainId",
          "type": "uint16"
        },
        {
          "internalType": "address",
          "name": "",
          "type": "address"
        },
        {
          "internalType": "uint256",
          "name": "_configType",
          "type": "uint256"
        }
      ],
      "name": "getConfig",
      "outputs": [
        {
          "internalType": "bytes",
          "name": "",
          "type": "bytes"
        }
      ],
      "stateMutability": "view",
      "type": "function"
    },
    {
      "inputs": [
        {
          "internalType": "uint16",
          "name": "_remoteChainId",
          "type": "uint16"
        }
      ],
      "name": "getTrustedRemoteAddress",
      "outputs": [
        {
          "internalType": "bytes",
          "name": "",
          "type": "bytes"
        }
      ],
      "stateMutability": "view",
      "type": "function"
    },
    {
      "inputs": [
        {
          "internalType": "uint16",
          "name": "_srcChainId",
          "type": "uint16"
        },
        {
          "internalType": "bytes",
          "name": "_srcAddress",
          "type": "bytes"
        }
      ],
      "name": "isTrustedRemote",
      "outputs": [
        {
          "internalType": "bool",
          "name": "",
          "type": "bool"
        }
      ],
      "stateMutability": "view",
      "type": "function"
    },
    {
      "inputs": [],
      "name": "lzEndpoint",
      "outputs": [
        {
          "internalType": "contract ILayerZeroEndpoint",
          "name": "",
          "type": "address"
        }
      ],
      "stateMutability": "view",
      "type": "function"
    },
    {
      "inputs": [
        {
          "internalType": "uint16",
          "name": "_srcChainId",
          "type": "uint16"
        },
        {
          "internalType": "bytes",
          "name": "_srcAddress",
          "type": "bytes"
        },
        {
          "internalType": "uint64",
          "name": "_nonce",
          "type": "uint64"
        },
        {
          "internalType": "bytes",
          "name": "_payload",
          "type": "bytes"
        }
      ],
      "name": "lzReceive",
      "outputs": [],
      "stateMutability": "nonpayable",
      "type": "function"
    },
    {
      "inputs": [
        {
          "internalType": "uint16",
          "name": "",
          "type": "uint16"
        },
        {
          "internalType": "uint16",
          "name": "",
          "type": "uint16"
        }
      ],
      "name": "minDstGasLookup",
      "outputs": [
        {
          "internalType": "uint256",
          "name": "",
          "type": "uint256"
        }
      ],
      "stateMutability": "view",
      "type": "function"
    },
    {
      "inputs": [
        {
          "internalType": "uint16",
          "name": "_srcChainId",
          "type": "uint16"
        },
        {
          "internalType": "bytes",
          "name": "_srcAddress",
          "type": "bytes"
        },
        {
          "internalType": "uint64",
          "name": "_nonce",
          "type": "uint64"
        },
        {
          "internalType": "bytes",
          "name": "_payload",
          "type": "bytes"
        }
      ],
      "name": "nonblockingLzReceive",
      "outputs": [],
      "stateMutability": "nonpayable",
      "type": "function"
    },
    {
      "inputs": [],
      "name": "owner",
      "outputs": [
        {
          "internalType": "address",
          "name": "",
          "type": "address"
        }
      ],
      "stateMutability": "view",
      "type": "function"
    },
    {
      "inputs": [],
      "name": "precrime",
      "outputs": [
        {
          "internalType": "address",
          "name": "",
          "type": "address"
        }
      ],
      "stateMutability": "view",
      "type": "function"
    },
    {
      "inputs": [
        {
          "internalType": "address",
          "name": "token",
          "type": "address"
        }
      ],
      "name": "registerToken",
      "outputs": [],
      "stateMutability": "nonpayable",
      "type": "function"
    },
    {
      "inputs": [],
      "name": "remoteChainId",
      "outputs": [
        {
          "internalType": "uint16",
          "name": "",
          "type": "uint16"
        }
      ],
      "stateMutability": "view",
      "type": "function"
    },
    {
      "inputs": [],
      "name": "renounceOwnership",
      "outputs": [],
      "stateMutability": "nonpayable",
      "type": "function"
    },
    {
      "inputs": [
        {
          "internalType": "uint16",
          "name": "_srcChainId",
          "type": "uint16"
        },
        {
          "internalType": "bytes",
          "name": "_srcAddress",
          "type": "bytes"
        },
        {
          "internalType": "uint64",
          "name": "_nonce",
          "type": "uint64"
        },
        {
          "internalType": "bytes",
          "name": "_payload",
          "type": "bytes"
        }
      ],
      "name": "retryMessage",
      "outputs": [],
      "stateMutability": "payable",
      "type": "function"
    },
    {
      "inputs": [
        {
          "internalType": "uint16",
          "name": "_version",
          "type": "uint16"
        },
        {
          "internalType": "uint16",
          "name": "_chainId",
          "type": "uint16"
        },
        {
          "internalType": "uint256",
          "name": "_configType",
          "type": "uint256"
        },
        {
          "internalType": "bytes",
          "name": "_config",
          "type": "bytes"
        }
      ],
      "name": "setConfig",
      "outputs": [],
      "stateMutability": "nonpayable",
      "type": "function"
    },
    {
      "inputs": [
        {
          "internalType": "uint16",
          "name": "_dstChainId",
          "type": "uint16"
        },
        {
          "internalType": "uint16",
          "name": "_packetType",
          "type": "uint16"
        },
        {
          "internalType": "uint256",
          "name": "_minGas",
          "type": "uint256"
        }
      ],
      "name": "setMinDstGas",
      "outputs": [],
      "stateMutability": "nonpayable",
      "type": "function"
    },
    {
      "inputs": [
        {
          "internalType": "address",
          "name": "_precrime",
          "type": "address"
        }
      ],
      "name": "setPrecrime",
      "outputs": [],
      "stateMutability": "nonpayable",
      "type": "function"
    },
    {
      "inputs": [
        {
          "internalType": "uint16",
          "name": "_version",
          "type": "uint16"
        }
      ],
      "name": "setReceiveVersion",
      "outputs": [],
      "stateMutability": "nonpayable",
      "type": "function"
    },
    {
      "inputs": [
        {
          "internalType": "uint16",
          "name": "_remoteChainId",
          "type": "uint16"
        }
      ],
      "name": "setRemoteChainId",
      "outputs": [],
      "stateMutability": "nonpayable",
      "type": "function"
    },
    {
      "inputs": [
        {
          "internalType": "uint16",
          "name": "_version",
          "type": "uint16"
        }
      ],
      "name": "setSendVersion",
      "outputs": [],
      "stateMutability": "nonpayable",
      "type": "function"
    },
    {
      "inputs": [
        {
          "internalType": "uint16",
          "name": "_srcChainId",
          "type": "uint16"
        },
        {
          "internalType": "bytes",
          "name": "_path",
          "type": "bytes"
        }
      ],
      "name": "setTrustedRemote",
      "outputs": [],
      "stateMutability": "nonpayable",
      "type": "function"
    },
    {
      "inputs": [
        {
          "internalType": "uint16",
          "name": "_remoteChainId",
          "type": "uint16"
        },
        {
          "internalType": "bytes",
          "name": "_remoteAddress",
          "type": "bytes"
        }
      ],
      "name": "setTrustedRemoteAddress",
      "outputs": [],
      "stateMutability": "nonpayable",
      "type": "function"
    },
    {
      "inputs": [
        {
          "internalType": "bool",
          "name": "_useCustomAdapterParams",
          "type": "bool"
        }
      ],
      "name": "setUseCustomAdapterParams",
      "outputs": [],
      "stateMutability": "nonpayable",
      "type": "function"
    },
    {
      "inputs": [
        {
          "internalType": "address",
          "name": "",
          "type": "address"
        }
      ],
      "name": "supportedTokens",
      "outputs": [
        {
          "internalType": "bool",
          "name": "",
          "type": "bool"
        }
      ],
      "stateMutability": "view",
      "type": "function"
    },
    {
      "inputs": [
        {
          "internalType": "address",
          "name": "",
          "type": "address"
        }
      ],
      "name": "totalValueLocked",
      "outputs": [
        {
          "internalType": "uint256",
          "name": "",
          "type": "uint256"
        }
      ],
      "stateMutability": "view",
      "type": "function"
    },
    {
      "inputs": [
        {
          "internalType": "address",
          "name": "newOwner",
          "type": "address"
        }
      ],
      "name": "transferOwnership",
      "outputs": [],
      "stateMutability": "nonpayable",
      "type": "function"
    },
    {
      "inputs": [
        {
          "internalType": "uint16",
          "name": "",
          "type": "uint16"
        }
      ],
      "name": "trustedRemoteLookup",
      "outputs": [
        {
          "internalType": "bytes",
          "name": "",
          "type": "bytes"
        }
      ],
      "stateMutability": "view",
      "type": "function"
    },
    {
      "inputs": [],
      "name": "useCustomAdapterParams",
      "outputs": [
        {
          "internalType": "bool",
          "name": "",
          "type": "bool"
        }
      ],
      "stateMutability": "view",
      "type": "function"
    },
    {
      "inputs": [],
      "name": "weth",
      "outputs": [
        {
          "internalType": "address",
          "name": "",
          "type": "address"
        }
      ],
      "stateMutability": "view",
      "type": "function"
    },
    {
      "inputs": [
        {
          "internalType": "address",
          "name": "token",
          "type": "address"
        },
        {
          "internalType": "address",
          "name": "to",
          "type": "address"
        },
        {
          "internalType": "uint256",
          "name": "amount",
          "type": "uint256"
        }
      ],
      "name": "withdrawFee",
      "outputs": [],
      "stateMutability": "nonpayable",
      "type": "function"
    },
    {
      "stateMutability": "payable",
      "type": "receive"
    }
  ],
  "transactionHash": "0xeea4cdcaad03a52c38678450e0fed745b85c86dc14b1850b18d4d3c96007cf0c",
  "args": [
    "0xf69186dfBa60DdB133E91E9A4B5673624293d8F8",
    10153,
    "0x9c3C9283D3e44854697Cd22D3Faa240Cfb032889"
  ],
  "numDeployments": 1,
  "solcInputHash": "9991d78e2b88ffc2b74935559bfe8b19",
  "bytecode": "0x60c06040523480156200001157600080fd5b506040516200387038038062003870833981016040819052620000349162000155565b8280806200004233620000e8565b6001600160a01b03908116608052600160055583169150620000be90505760405162461bcd60e51b815260206004820152602960248201527f4f726967696e616c546f6b656e4272696467653a20696e76616c69642057455460448201526848206164647265737360b81b606482015260840160405180910390fd5b6009805461ffff191661ffff93909316929092179091556001600160a01b031660a05250620001a7565b600080546001600160a01b038381166001600160a01b0319831681178455604051919092169283917f8be0079c531659141344cd1fd0a4f28419497f9722a3daafe3b4186f6b6457e09190a35050565b80516001600160a01b03811681146200015057600080fd5b919050565b6000806000606084860312156200016b57600080fd5b620001768462000138565b9250602084015161ffff811681146200018e57600080fd5b91506200019e6040850162000138565b90509250925092565b60805160a05161364f620002216000396000818161036701528181611653015281816116ca01528181611d4d0152611da401526000818161060101528181610787015281816109d601528181610c8601528181610d0601528181610ed50152818161135a0152818161190d01526126e3015261364f6000f3fe60806040526004361061021d5760003560e01c80638cfd8f5c11610123578063d1deba1f116100ab578063eb8d72b71161006f578063eb8d72b7146106f7578063ed629c5c14610717578063f2fde38b14610731578063f5ecbdbc14610751578063fe359a0d1461077157600080fd5b8063d1deba1f14610663578063de7aaff414610676578063df2a5b3b14610689578063e9518196146106a9578063eab45d9c146106d757600080fd5b80639f38369a116100f25780639f38369a146105af578063a6c3d165146105cf578063b353aaa7146105ef578063baf3292d14610623578063cbed8b9c1461064357600080fd5b80638cfd8f5c146105195780638da5cb5b1461055157806391b114b21461056f578063950c8a741461058f57600080fd5b806342d65a8d116101a657806366ad5c8a1161017557806366ad5c8a1461047257806368c4ac261461049257806368ea28b0146104c2578063715018a6146104d75780637533d788146104ec57600080fd5b806342d65a8d146103a157806346f6f9b5146103c15780634aff33c8146103e85780635b8c41e61461042357600080fd5b806310ddb137116101ed57806310ddb137146102ab57806320211678146102cb57806338db1ebc146103055780633d8b38f6146103255780633fc8cef31461035557600080fd5b80621d35671461022957806307e0db171461024b57806309824a801461026b5780631095b6d71461028b57600080fd5b3661022457005b600080fd5b34801561023557600080fd5b50610249610244366004612a98565b610784565b005b34801561025757600080fd5b50610249610266366004612b2b565b6109b5565b34801561027757600080fd5b50610249610286366004612b5b565b610a3e565b34801561029757600080fd5b506102496102a6366004612b78565b610b89565b3480156102b757600080fd5b506102496102c6366004612b2b565b610c65565b3480156102d757600080fd5b506102eb6102e6366004612bc7565b610cbd565b604080519283526020830191909152015b60405180910390f35b34801561031157600080fd5b50610249610320366004612b2b565b610d9e565b34801561033157600080fd5b50610345610340366004612c1b565b610dea565b60405190151581526020016102fc565b34801561036157600080fd5b506103897f000000000000000000000000000000000000000000000000000000000000000081565b6040516001600160a01b0390911681526020016102fc565b3480156103ad57600080fd5b506102496103bc366004612c1b565b610eb6565b3480156103cd57600080fd5b506103d6600081565b60405160ff90911681526020016102fc565b3480156103f457600080fd5b50610415610403366004612b5b565b60086020526000908152604090205481565b6040519081526020016102fc565b34801561042f57600080fd5b5061041561043e366004612cfc565b6004602090815260009384526040808520845180860184018051928152908401958401959095209452929052825290205481565b34801561047e57600080fd5b5061024961048d366004612a98565b610f3c565b34801561049e57600080fd5b506103456104ad366004612b5b565b60076020526000908152604090205460ff1681565b3480156104ce57600080fd5b506103d6600181565b3480156104e357600080fd5b50610249611018565b3480156104f857600080fd5b5061050c610507366004612b2b565b611022565b6040516102fc9190612da9565b34801561052557600080fd5b50610415610534366004612dbc565b600260209081526000928352604080842090915290825290205481565b34801561055d57600080fd5b506000546001600160a01b0316610389565b34801561057b57600080fd5b5061041561058a366004612b5b565b6110bc565b34801561059b57600080fd5b50600354610389906001600160a01b031681565b3480156105bb57600080fd5b5061050c6105ca366004612b2b565b611146565b3480156105db57600080fd5b506102496105ea366004612c1b565b61125c565b3480156105fb57600080fd5b506103897f000000000000000000000000000000000000000000000000000000000000000081565b34801561062f57600080fd5b5061024961063e366004612b5b565b6112e5565b34801561064f57600080fd5b5061024961065e366004612def565b61133b565b610249610671366004612a98565b6113d0565b610249610684366004612e75565b6115e6565b34801561069557600080fd5b506102496106a4366004612edf565b61170e565b3480156106b557600080fd5b506009546106c49061ffff1681565b60405161ffff90911681526020016102fc565b3480156106e357600080fd5b506102496106f2366004612f1b565b6117c0565b34801561070357600080fd5b50610249610712366004612c1b565b611809565b34801561072357600080fd5b506006546103459060ff1681565b34801561073d57600080fd5b5061024961074c366004612b5b565b611863565b34801561075d57600080fd5b5061050c61076c366004612f38565b6118dc565b61024961077f366004612f85565b61198f565b337f00000000000000000000000000000000000000000000000000000000000000006001600160a01b0316146108015760405162461bcd60e51b815260206004820152601e60248201527f4c7a4170703a20696e76616c696420656e64706f696e742063616c6c6572000060448201526064015b60405180910390fd5b61ffff86166000908152600160205260408120805461081f90613002565b80601f016020809104026020016040519081016040528092919081815260200182805461084b90613002565b80156108985780601f1061086d57610100808354040283529160200191610898565b820191906000526020600020905b81548152906001019060200180831161087b57829003601f168201915b505050505090508051868690501480156108b3575060008151115b80156108db5750805160208201206040516108d19088908890613036565b6040518091039020145b6109365760405162461bcd60e51b815260206004820152602660248201527f4c7a4170703a20696e76616c696420736f757263652073656e64696e6720636f6044820152651b9d1c9858dd60d21b60648201526084016107f8565b6109ac8787878080601f01602080910402602001604051908101604052809392919081815260200183838082843760009201919091525050604080516020601f8a018190048102820181019092528881528a935091508890889081908401838280828437600092019190915250611aac92505050565b50505050505050565b6109bd611b25565b6040516307e0db1760e01b815261ffff821660048201527f00000000000000000000000000000000000000000000000000000000000000006001600160a01b0316906307e0db17906024015b600060405180830381600087803b158015610a2357600080fd5b505af1158015610a37573d6000803e3d6000fd5b5050505050565b610a46611b25565b6001600160a01b038116610aaf5760405162461bcd60e51b815260206004820152602a60248201527f4f726967696e616c546f6b656e4272696467653a20696e76616c696420746f6b604482015269656e206164647265737360b01b60648201526084016107f8565b6001600160a01b03811660009081526007602052604090205460ff1615610b2e5760405162461bcd60e51b815260206004820152602d60248201527f4f726967696e616c546f6b656e4272696467653a20746f6b656e20616c72656160448201526c191e481c9959da5cdd195c9959609a1b60648201526084016107f8565b6001600160a01b038116600081815260076020908152604091829020805460ff1916600117905590519182527ff7fe8023cb2e36bde1d59a88ac5763a8c11be6d25e6819f71bb7e23e5bf0dc1691015b60405180910390a150565b610b91611b25565b6000610b9c846110bc565b905080821115610c055760405162461bcd60e51b815260206004820152602e60248201527f4f726967696e616c546f6b656e4272696467653a206e6f7420656e6f7567682060448201526d1999595cc818dbdb1b1958dd195960921b60648201526084016107f8565b610c196001600160a01b0385168484611b7f565b604080516001600160a01b038581168252602082018590528616917ff15a0a3784dea9b4fe33bc98e2450745e262d310237b2868ea8ef56967ff3ecb910160405180910390a250505050565b610c6d611b25565b6040516310ddb13760e01b815261ffff821660048201527f00000000000000000000000000000000000000000000000000000000000000006001600160a01b0316906310ddb13790602401610a09565b60408051600060208201819052308284018190526060830181905260808084018390528451808503909101815260a084019485905260095463040a7bb160e41b909552919384937f00000000000000000000000000000000000000000000000000000000000000006001600160a01b0316926340a7bb1092610d519261ffff909116919086908c908c908c9060a40161306f565b6040805180830381865afa158015610d6d573d6000803e3d6000fd5b505050506040513d601f19601f82011682018060405250810190610d9191906130c5565b9250925050935093915050565b610da6611b25565b6009805461ffff191661ffff83169081179091556040519081527fe8df78a276e2b718a366328e9120b436ea83832fbeede026392fed933e3ffa5b90602001610b7e565b61ffff831660009081526001602052604081208054829190610e0b90613002565b80601f0160208091040260200160405190810160405280929190818152602001828054610e3790613002565b8015610e845780601f10610e5957610100808354040283529160200191610e84565b820191906000526020600020905b815481529060010190602001808311610e6757829003601f168201915b505050505090508383604051610e9b929190613036565b60405180910390208180519060200120149150509392505050565b610ebe611b25565b6040516342d65a8d60e01b81526001600160a01b037f000000000000000000000000000000000000000000000000000000000000000016906342d65a8d90610f0e908690869086906004016130e9565b600060405180830381600087803b158015610f2857600080fd5b505af11580156109ac573d6000803e3d6000fd5b333014610f9a5760405162461bcd60e51b815260206004820152602660248201527f4e6f6e626c6f636b696e674c7a4170703a2063616c6c6572206d7573742062656044820152650204c7a4170760d41b60648201526084016107f8565b6110108686868080601f01602080910402602001604051908101604052809392919081815260200183838082843760009201919091525050604080516020601f890181900481028201810190925287815289935091508790879081908401838280828437600092019190915250611be792505050565b505050505050565b611020611b25565b565b6001602052600090815260409020805461103b90613002565b80601f016020809104026020016040519081016040528092919081815260200182805461106790613002565b80156110b45780601f10611089576101008083540402835291602001916110b4565b820191906000526020600020905b81548152906001019060200180831161109757829003601f168201915b505050505081565b6001600160a01b0381166000818152600860205260408082205490516370a0823160e01b8152306004820152919290916370a0823190602401602060405180830381865afa158015611112573d6000803e3d6000fd5b505050506040513d601f19601f820116820180604052508101906111369190613107565b6111409190613136565b92915050565b61ffff811660009081526001602052604081208054606092919061116990613002565b80601f016020809104026020016040519081016040528092919081815260200182805461119590613002565b80156111e25780601f106111b7576101008083540402835291602001916111e2565b820191906000526020600020905b8154815290600101906020018083116111c557829003601f168201915b50505050509050805160000361123a5760405162461bcd60e51b815260206004820152601d60248201527f4c7a4170703a206e6f20747275737465642070617468207265636f726400000060448201526064016107f8565b61125560006014835161124d9190613136565b839190611f73565b9392505050565b611264611b25565b81813060405160200161127993929190613149565b60408051601f1981840301815291815261ffff85166000908152600160205220906112a490826131b5565b507f8c0400cfe2d1199b1a725c78960bcc2a344d869b80590d0f2bd005db15a572ce8383836040516112d8939291906130e9565b60405180910390a1505050565b6112ed611b25565b600380546001600160a01b0319166001600160a01b0383169081179091556040519081527f5db758e995a17ec1ad84bdef7e8c3293a0bd6179bcce400dff5d4c3d87db726b90602001610b7e565b611343611b25565b6040516332fb62e760e21b81526001600160a01b037f0000000000000000000000000000000000000000000000000000000000000000169063cbed8b9c906113979088908890889088908890600401613274565b600060405180830381600087803b1580156113b157600080fd5b505af11580156113c5573d6000803e3d6000fd5b505050505050505050565b61ffff861660009081526004602052604080822090516113f39088908890613036565b90815260408051602092819003830190206001600160401b038716600090815292529020549050806114735760405162461bcd60e51b815260206004820152602360248201527f4e6f6e626c6f636b696e674c7a4170703a206e6f2073746f726564206d65737360448201526261676560e81b60648201526084016107f8565b808383604051611484929190613036565b6040518091039020146114e35760405162461bcd60e51b815260206004820152602160248201527f4e6f6e626c6f636b696e674c7a4170703a20696e76616c6964207061796c6f616044820152601960fa1b60648201526084016107f8565b61ffff871660009081526004602052604080822090516115069089908990613036565b90815260408051602092819003830181206001600160401b038916600090815290845282902093909355601f8801829004820283018201905286825261159e918991899089908190840183828082843760009201919091525050604080516020601f8a018190048102820181019092528881528a935091508890889081908401838280828437600092019190915250611be792505050565b7fc264d91f3adc5588250e1551f547752ca0cfa8f6b530d243b9f9f4cab10ea8e587878787856040516115d59594939291906132a2565b60405180910390a150505050505050565b6115ee612080565b833410156116515760405162461bcd60e51b815260206004820152602a60248201527f4f726967696e616c546f6b656e4272696467653a206e6f7420656e6f756768206044820152691d985b1d59481cd95b9d60b21b60648201526084016107f8565b7f00000000000000000000000000000000000000000000000000000000000000006001600160a01b031663d0e30db0856040518263ffffffff1660e01b81526004016000604051808303818588803b1580156116ac57600080fd5b505af11580156116c0573d6000803e3d6000fd5b50505050506116fe7f0000000000000000000000000000000000000000000000000000000000000000858587346116f79190613136565b86866120d9565b6117086001600555565b50505050565b611716611b25565b6000811161175e5760405162461bcd60e51b81526020600482015260156024820152744c7a4170703a20696e76616c6964206d696e47617360581b60448201526064016107f8565b61ffff83811660008181526002602090815260408083209487168084529482529182902085905581519283528201929092529081018290527f9d5c7c0b934da8fefa9c7760c98383778a12dfbfc0c3b3106518f43fb9508ac0906060016112d8565b6117c8611b25565b6006805460ff19168215159081179091556040519081527f1584ad594a70cbe1e6515592e1272a987d922b097ead875069cebe8b40c004a490602001610b7e565b611811611b25565b61ffff8316600090815260016020526040902061182f8284836132dd565b507ffa41487ad5d6728f0b19276fa1eddc16558578f5109fc39d2dc33c3230470dab8383836040516112d8939291906130e9565b61186b611b25565b6001600160a01b0381166118d05760405162461bcd60e51b815260206004820152602660248201527f4f776e61626c653a206e6577206f776e657220697320746865207a65726f206160448201526564647265737360d01b60648201526084016107f8565b6118d9816122c8565b50565b604051633d7b2f6f60e21b815261ffff808616600483015284166024820152306044820152606481018290526060907f00000000000000000000000000000000000000000000000000000000000000006001600160a01b03169063f5ecbdbc90608401600060405180830381865afa15801561195c573d6000803e3d6000fd5b505050506040513d6000823e601f3d908101601f19168201604052611984919081019061339c565b90505b949350505050565b611997612080565b6040516370a0823160e01b81523060048201526000906001600160a01b038716906370a0823190602401602060405180830381865afa1580156119de573d6000803e3d6000fd5b505050506040513d601f19601f82011682018060405250810190611a029190613107565b9050611a196001600160a01b038716333088612318565b6040516370a0823160e01b81523060048201526000906001600160a01b038816906370a0823190602401602060405180830381865afa158015611a60573d6000803e3d6000fd5b505050506040513d601f19601f82011682018060405250810190611a849190613107565b9050611a908282613136565b9550611aa08787873488886120d9565b5050610a376001600555565b600080611b0f5a60966366ad5c8a60e01b89898989604051602401611ad49493929190613412565b60408051601f198184030181529190526020810180516001600160e01b03166001600160e01b03199093169290921790915230929190612350565b91509150816110105761101086868686856123da565b6000546001600160a01b031633146110205760405162461bcd60e51b815260206004820181905260248201527f4f776e61626c653a2063616c6c6572206973206e6f7420746865206f776e657260448201526064016107f8565b6040516001600160a01b038316602482015260448101829052611be290849063a9059cbb60e01b906064015b60408051601f198184030181529190526020810180516001600160e01b03166001600160e01b031990931692909217909152612477565b505050565b60095461ffff858116911614611c545760405162461bcd60e51b815260206004820152602c60248201527f4f726967696e616c546f6b656e4272696467653a20696e76616c696420736f7560448201526b1c98d94818da185a5b881a5960a21b60648201526084016107f8565b60008060008060008086806020019051810190611c719190613450565b955095509550955095509550600160ff168660ff1614611ce45760405162461bcd60e51b815260206004820152602860248201527f4f726967696e616c546f6b656e4272696467653a20756e6b6e6f776e207061636044820152676b6574207479706560c01b60648201526084016107f8565b6001600160a01b03851660009081526007602052604090205460ff16611d1c5760405162461bcd60e51b81526004016107f8906134ca565b6001600160a01b03851660009081526008602052604081208054849290611d44908490613136565b925050819055507f00000000000000000000000000000000000000000000000000000000000000006001600160a01b0316856001600160a01b0316148015611d895750805b15611f0757604051632e1a7d4d60e01b8152600481018490527f00000000000000000000000000000000000000000000000000000000000000006001600160a01b031690632e1a7d4d90602401600060405180830381600087803b158015611df057600080fd5b505af1158015611e04573d6000803e3d6000fd5b505050506000846001600160a01b03168460405160006040518083038185875af1925050503d8060008114611e55576040519150601f19603f3d011682016040523d82523d6000602084013e611e5a565b606091505b5050905080611eb75760405162461bcd60e51b815260206004820152602360248201527f4f726967696e616c546f6b656e4272696467653a206661696c656420746f2073604482015262195b9960ea1b60648201526084016107f8565b60408051600081526001600160a01b03871660208201529081018590527f5e3da8fba24af91505c66214c9e629ba712ce2c1b8c318f14f7024fdcba544a89060600160405180910390a150611f67565b611f1b6001600160a01b0386168585611b7f565b604080516001600160a01b038088168252861660208201529081018490527f5e3da8fba24af91505c66214c9e629ba712ce2c1b8c318f14f7024fdcba544a89060600160405180910390a15b50505050505050505050565b606081611f8181601f613515565b1015611fc05760405162461bcd60e51b815260206004820152600e60248201526d736c6963655f6f766572666c6f7760901b60448201526064016107f8565b611fca8284613515565b8451101561200e5760405162461bcd60e51b8152602060048201526011602482015270736c6963655f6f75744f66426f756e647360781b60448201526064016107f8565b60608215801561202d5760405191506000825260208201604052612077565b6040519150601f8416801560200281840101858101878315602002848b0101015b8183101561206657805183526020928301920161204e565b5050858452601f01601f1916604052505b50949350505050565b6002600554036120d25760405162461bcd60e51b815260206004820152601f60248201527f5265656e7472616e637947756172643a207265656e7472616e742063616c6c0060448201526064016107f8565b6002600555565b6001600160a01b03841661212f5760405162461bcd60e51b815260206004820152601f60248201527f4f726967696e616c546f6b656e4272696467653a20696e76616c696420746f0060448201526064016107f8565b6001600160a01b03861660009081526007602052604090205460ff166121675760405162461bcd60e51b81526004016107f8906134ca565b600085116121c35760405162461bcd60e51b815260206004820152602360248201527f4f726967696e616c546f6b656e4272696467653a20696e76616c696420616d6f6044820152621d5b9d60ea1b60648201526084016107f8565b6009546121d69061ffff16600083612549565b6001600160a01b038616600090815260086020526040812080548792906121fe908490613515565b9091555050604080516000602082018190526001600160a01b03808a169383019390935291861660608201526080810187905260a00160408051601f198184030181529190526009549091506122779061ffff16826122606020870187612b5b565b6122706040880160208901612b5b565b86896125c5565b604080516001600160a01b03808a168252336020830152871691810191909152606081018790527f49b9b5358c9580b3e6c5ee10b8b260c1e64bede87cb8a212e9e20a0b7dc20e5a906080016115d5565b600080546001600160a01b038381166001600160a01b0319831681178455604051919092169283917f8be0079c531659141344cd1fd0a4f28419497f9722a3daafe3b4186f6b6457e09190a35050565b6040516001600160a01b03808516602483015283166044820152606481018290526117089085906323b872dd60e01b90608401611bab565b6000606060008060008661ffff166001600160401b0381111561237557612375612c39565b6040519080825280601f01601f19166020018201604052801561239f576020820181803683370190505b50905060008087516020890160008d8df191503d9250868311156123c1578692505b828152826000602083013e909890975095505050505050565b8180519060200120600460008761ffff1661ffff1681526020019081526020016000208560405161240b9190613528565b9081526040805191829003602090810183206001600160401b0388166000908152915220919091557fe183f33de2837795525b4792ca4cd60535bd77c53b7e7030060bfcf5734d6b0c906124689087908790879087908790613544565b60405180910390a15050505050565b60006124cc826040518060400160405280602081526020017f5361666545524332303a206c6f772d6c6576656c2063616c6c206661696c6564815250856001600160a01b031661275f9092919063ffffffff16565b805190915015611be257808060200190518101906124ea91906135a2565b611be25760405162461bcd60e51b815260206004820152602a60248201527f5361666545524332303a204552433230206f7065726174696f6e20646964206e6044820152691bdd081cdd58d8d9595960b21b60648201526084016107f8565b60065460ff161561256157611be2838383600061276e565b805115611be25760405162461bcd60e51b815260206004820152602c60248201527f546f6b656e427269646765426173653a2061646170746572506172616d73206d60448201526b75737420626520656d70747960a01b60648201526084016107f8565b61ffff8616600090815260016020526040812080546125e390613002565b80601f016020809104026020016040519081016040528092919081815260200182805461260f90613002565b801561265c5780601f106126315761010080835404028352916020019161265c565b820191906000526020600020905b81548152906001019060200180831161263f57829003601f168201915b5050505050905080516000036126cd5760405162461bcd60e51b815260206004820152603060248201527f4c7a4170703a2064657374696e6174696f6e20636861696e206973206e6f742060448201526f61207472757374656420736f7572636560801b60648201526084016107f8565b60405162c5803160e81b81526001600160a01b037f0000000000000000000000000000000000000000000000000000000000000000169063c5803100908490612724908b9086908c908c908c908c906004016135bf565b6000604051808303818588803b15801561273d57600080fd5b505af1158015612751573d6000803e3d6000fd5b505050505050505050505050565b6060611987848460008561284d565b600061277983612928565b61ffff8087166000908152600260209081526040808320938916835292905290812054919250906127ab908490613515565b9050600081116127fd5760405162461bcd60e51b815260206004820152601a60248201527f4c7a4170703a206d696e4761734c696d6974206e6f742073657400000000000060448201526064016107f8565b808210156110105760405162461bcd60e51b815260206004820152601b60248201527f4c7a4170703a20676173206c696d697420697320746f6f206c6f77000000000060448201526064016107f8565b6060824710156128ae5760405162461bcd60e51b815260206004820152602660248201527f416464726573733a20696e73756666696369656e742062616c616e636520666f6044820152651c8818d85b1b60d21b60648201526084016107f8565b600080866001600160a01b031685876040516128ca9190613528565b60006040518083038185875af1925050503d8060008114612907576040519150601f19603f3d011682016040523d82523d6000602084013e61290c565b606091505b509150915061291d87838387612984565b979650505050505050565b600060228251101561297c5760405162461bcd60e51b815260206004820152601c60248201527f4c7a4170703a20696e76616c69642061646170746572506172616d730000000060448201526064016107f8565b506022015190565b606083156129f35782516000036129ec576001600160a01b0385163b6129ec5760405162461bcd60e51b815260206004820152601d60248201527f416464726573733a2063616c6c20746f206e6f6e2d636f6e747261637400000060448201526064016107f8565b5081611987565b6119878383815115612a085781518083602001fd5b8060405162461bcd60e51b81526004016107f89190612da9565b803561ffff81168114612a3457600080fd5b919050565b60008083601f840112612a4b57600080fd5b5081356001600160401b03811115612a6257600080fd5b602083019150836020828501011115612a7a57600080fd5b9250929050565b80356001600160401b0381168114612a3457600080fd5b60008060008060008060808789031215612ab157600080fd5b612aba87612a22565b955060208701356001600160401b0380821115612ad657600080fd5b612ae28a838b01612a39565b9097509550859150612af660408a01612a81565b94506060890135915080821115612b0c57600080fd5b50612b1989828a01612a39565b979a9699509497509295939492505050565b600060208284031215612b3d57600080fd5b61125582612a22565b6001600160a01b03811681146118d957600080fd5b600060208284031215612b6d57600080fd5b813561125581612b46565b600080600060608486031215612b8d57600080fd5b8335612b9881612b46565b92506020840135612ba881612b46565b929592945050506040919091013590565b80151581146118d957600080fd5b600080600060408486031215612bdc57600080fd5b8335612be781612bb9565b925060208401356001600160401b03811115612c0257600080fd5b612c0e86828701612a39565b9497909650939450505050565b600080600060408486031215612c3057600080fd5b612be784612a22565b634e487b7160e01b600052604160045260246000fd5b604051601f8201601f191681016001600160401b0381118282101715612c7757612c77612c39565b604052919050565b60006001600160401b03821115612c9857612c98612c39565b50601f01601f191660200190565b600082601f830112612cb757600080fd5b8135612cca612cc582612c7f565b612c4f565b818152846020838601011115612cdf57600080fd5b816020850160208301376000918101602001919091529392505050565b600080600060608486031215612d1157600080fd5b612d1a84612a22565b925060208401356001600160401b03811115612d3557600080fd5b612d4186828701612ca6565b925050612d5060408501612a81565b90509250925092565b60005b83811015612d74578181015183820152602001612d5c565b50506000910152565b60008151808452612d95816020860160208601612d59565b601f01601f19169290920160200192915050565b6020815260006112556020830184612d7d565b60008060408385031215612dcf57600080fd5b612dd883612a22565b9150612de660208401612a22565b90509250929050565b600080600080600060808688031215612e0757600080fd5b612e1086612a22565b9450612e1e60208701612a22565b93506040860135925060608601356001600160401b03811115612e4057600080fd5b612e4c88828901612a39565b969995985093965092949392505050565b600060408284031215612e6f57600080fd5b50919050565b60008060008060a08587031215612e8b57600080fd5b843593506020850135612e9d81612b46565b9250612eac8660408701612e5d565b915060808501356001600160401b03811115612ec757600080fd5b612ed387828801612ca6565b91505092959194509250565b600080600060608486031215612ef457600080fd5b612efd84612a22565b9250612f0b60208501612a22565b9150604084013590509250925092565b600060208284031215612f2d57600080fd5b813561125581612bb9565b60008060008060808587031215612f4e57600080fd5b612f5785612a22565b9350612f6560208601612a22565b92506040850135612f7581612b46565b9396929550929360600135925050565b600080600080600060c08688031215612f9d57600080fd5b8535612fa881612b46565b9450602086013593506040860135612fbf81612b46565b9250612fce8760608801612e5d565b915060a08601356001600160401b03811115612fe957600080fd5b612ff588828901612ca6565b9150509295509295909350565b600181811c9082168061301657607f821691505b602082108103612e6f57634e487b7160e01b600052602260045260246000fd5b8183823760009101908152919050565b81835281816020850137506000828201602090810191909152601f909101601f19169091010190565b61ffff871681526001600160a01b038616602082015260a06040820181905260009061309d90830187612d7d565b851515606084015282810360808401526130b8818587613046565b9998505050505050505050565b600080604083850312156130d857600080fd5b505080516020909101519092909150565b61ffff84168152604060208201526000611984604083018486613046565b60006020828403121561311957600080fd5b5051919050565b634e487b7160e01b600052601160045260246000fd5b8181038181111561114057611140613120565b8284823760609190911b6bffffffffffffffffffffffff19169101908152601401919050565b601f821115611be257600081815260208120601f850160051c810160208610156131965750805b601f850160051c820191505b81811015611010578281556001016131a2565b81516001600160401b038111156131ce576131ce612c39565b6131e2816131dc8454613002565b8461316f565b602080601f83116001811461321757600084156131ff5750858301515b600019600386901b1c1916600185901b178555611010565b600085815260208120601f198616915b8281101561324657888601518255948401946001909101908401613227565b50858210156132645787850151600019600388901b60f8161c191681555b5050505050600190811b01905550565b600061ffff80881683528087166020840152508460408301526080606083015261291d608083018486613046565b61ffff861681526080602082015260006132c0608083018688613046565b6001600160401b0394909416604083015250606001529392505050565b6001600160401b038311156132f4576132f4612c39565b613308836133028354613002565b8361316f565b6000601f84116001811461333c57600085156133245750838201355b600019600387901b1c1916600186901b178355610a37565b600083815260209020601f19861690835b8281101561336d578685013582556020948501946001909201910161334d565b508682101561338a5760001960f88860031b161c19848701351681555b505060018560011b0183555050505050565b6000602082840312156133ae57600080fd5b81516001600160401b038111156133c457600080fd5b8201601f810184136133d557600080fd5b80516133e3612cc582612c7f565b8181528560208385010111156133f857600080fd5b613409826020830160208601612d59565b95945050505050565b61ffff8516815260806020820152600061342f6080830186612d7d565b6001600160401b0385166040840152828103606084015261291d8185612d7d565b60008060008060008060c0878903121561346957600080fd5b865160ff8116811461347a57600080fd5b602088015190965061348b81612b46565b604088015190955061349c81612b46565b80945050606087015192506080870151915060a08701516134bc81612bb9565b809150509295509295509295565b6020808252602b908201527f4f726967696e616c546f6b656e4272696467653a20746f6b656e206973206e6f60408201526a1d081cdd5c1c1bdc9d195960aa1b606082015260800190565b8082018082111561114057611140613120565b6000825161353a818460208701612d59565b9190910192915050565b61ffff8616815260a06020820152600061356160a0830187612d7d565b6001600160401b038616604084015282810360608401526135828186612d7d565b905082810360808401526135968185612d7d565b98975050505050505050565b6000602082840312156135b457600080fd5b815161125581612bb9565b61ffff8716815260c0602082015260006135dc60c0830188612d7d565b82810360408401526135ee8188612d7d565b6001600160a01b0387811660608601528616608085015283810360a085015290506130b88185612d7d56fea2646970667358221220d57769eb161cce2217bdf14925d7f1fa5c672327f26738060c5b21a2e23ad2aa64736f6c63430008110033",
  "devdoc": {
    "details": "Locks an ERC20 on the source chain and sends LZ message to the remote chain to mint a wrapped token",
    "kind": "dev",
    "methods": {
      "bridge(address,uint256,address,(address,address),bytes)": {
        "details": "Locks an ERC20 on the source chain and sends LZ message to the remote chain to mint a wrapped token"
      },
      "bridgeETH(uint256,address,(address,address),bytes)": {
        "details": "Locks WETH on the source chain and sends LZ message to the remote chain to mint a wrapped token"
      },
      "owner()": {
        "details": "Returns the address of the current owner."
      },
      "renounceOwnership()": {
        "details": "Overrides the renounce ownership logic inherited from openZeppelin `Ownable`"
      },
      "setUseCustomAdapterParams(bool)": {
        "details": "Can be called only by the bridge owner"
      },
      "transferOwnership(address)": {
        "details": "Transfers ownership of the contract to a new account (`newOwner`). Can only be called by the current owner."
      }
    },
    "version": 1
  },
  "userdoc": {
    "kind": "user",
    "methods": {
      "PT_MINT()": {
        "notice": "A packet type used to identify messages requesting minting of wrapped tokens"
      },
      "PT_UNLOCK()": {
        "notice": "A packet type used to identify messages requesting unlocking of original tokens"
      },
      "bridge(address,uint256,address,(address,address),bytes)": {
        "notice": "Bridges ERC20 to the remote chain"
      },
      "bridgeETH(uint256,address,(address,address),bytes)": {
        "notice": "Bridges ETH to the remote chain"
      },
      "remoteChainId()": {
        "notice": "LayerZero id of the remote chain where wrapped tokens are minted"
      },
      "setUseCustomAdapterParams(bool)": {
        "notice": "Sets the `useCustomAdapterParams` flag indicating whether the contract uses custom adapter parameters or the default ones"
      },
      "supportedTokens(address)": {
        "notice": "Tokens that can be bridged to the remote chain"
      },
      "totalValueLocked(address)": {
        "notice": "Total value locked per each supported token"
      },
      "weth()": {
        "notice": "Address of the wrapped native gas token (e.g. WETH, WBNB, WMATIC)"
      }
    },
    "version": 1
  },
  "storageLayout": {
    "storage": [
      {
        "astId": 2900,
        "contract": "contracts/OriginalTokenBridge.sol:OriginalTokenBridge",
        "label": "_owner",
        "offset": 0,
        "slot": "0",
        "type": "t_address"
      },
      {
        "astId": 437,
        "contract": "contracts/OriginalTokenBridge.sol:OriginalTokenBridge",
        "label": "trustedRemoteLookup",
        "offset": 0,
        "slot": "1",
        "type": "t_mapping(t_uint16,t_bytes_storage)"
      },
      {
        "astId": 443,
        "contract": "contracts/OriginalTokenBridge.sol:OriginalTokenBridge",
        "label": "minDstGasLookup",
        "offset": 0,
        "slot": "2",
        "type": "t_mapping(t_uint16,t_mapping(t_uint16,t_uint256))"
      },
      {
        "astId": 445,
        "contract": "contracts/OriginalTokenBridge.sol:OriginalTokenBridge",
        "label": "precrime",
        "offset": 0,
        "slot": "3",
        "type": "t_address"
      },
      {
        "astId": 930,
        "contract": "contracts/OriginalTokenBridge.sol:OriginalTokenBridge",
        "label": "failedMessages",
        "offset": 0,
        "slot": "4",
        "type": "t_mapping(t_uint16,t_mapping(t_bytes_memory_ptr,t_mapping(t_uint64,t_bytes32)))"
      },
      {
        "astId": 3016,
        "contract": "contracts/OriginalTokenBridge.sol:OriginalTokenBridge",
        "label": "_status",
        "offset": 0,
        "slot": "5",
        "type": "t_uint256"
      },
      {
        "astId": 5021,
        "contract": "contracts/OriginalTokenBridge.sol:OriginalTokenBridge",
        "label": "useCustomAdapterParams",
        "offset": 0,
        "slot": "6",
        "type": "t_bool"
      },
      {
        "astId": 4442,
        "contract": "contracts/OriginalTokenBridge.sol:OriginalTokenBridge",
        "label": "supportedTokens",
        "offset": 0,
        "slot": "7",
        "type": "t_mapping(t_address,t_bool)"
      },
      {
        "astId": 4447,
        "contract": "contracts/OriginalTokenBridge.sol:OriginalTokenBridge",
        "label": "totalValueLocked",
        "offset": 0,
        "slot": "8",
        "type": "t_mapping(t_address,t_uint256)"
      },
      {
        "astId": 4450,
        "contract": "contracts/OriginalTokenBridge.sol:OriginalTokenBridge",
        "label": "remoteChainId",
        "offset": 0,
        "slot": "9",
        "type": "t_uint16"
      }
    ],
    "types": {
      "t_address": {
        "encoding": "inplace",
        "label": "address",
        "numberOfBytes": "20"
      },
      "t_bool": {
        "encoding": "inplace",
        "label": "bool",
        "numberOfBytes": "1"
      },
      "t_bytes32": {
        "encoding": "inplace",
        "label": "bytes32",
        "numberOfBytes": "32"
      },
      "t_bytes_memory_ptr": {
        "encoding": "bytes",
        "label": "bytes",
        "numberOfBytes": "32"
      },
      "t_bytes_storage": {
        "encoding": "bytes",
        "label": "bytes",
        "numberOfBytes": "32"
      },
      "t_mapping(t_address,t_bool)": {
        "encoding": "mapping",
        "key": "t_address",
        "label": "mapping(address => bool)",
        "numberOfBytes": "32",
        "value": "t_bool"
      },
      "t_mapping(t_address,t_uint256)": {
        "encoding": "mapping",
        "key": "t_address",
        "label": "mapping(address => uint256)",
        "numberOfBytes": "32",
        "value": "t_uint256"
      },
      "t_mapping(t_bytes_memory_ptr,t_mapping(t_uint64,t_bytes32))": {
        "encoding": "mapping",
        "key": "t_bytes_memory_ptr",
        "label": "mapping(bytes => mapping(uint64 => bytes32))",
        "numberOfBytes": "32",
        "value": "t_mapping(t_uint64,t_bytes32)"
      },
      "t_mapping(t_uint16,t_bytes_storage)": {
        "encoding": "mapping",
        "key": "t_uint16",
        "label": "mapping(uint16 => bytes)",
        "numberOfBytes": "32",
        "value": "t_bytes_storage"
      },
      "t_mapping(t_uint16,t_mapping(t_bytes_memory_ptr,t_mapping(t_uint64,t_bytes32)))": {
        "encoding": "mapping",
        "key": "t_uint16",
        "label": "mapping(uint16 => mapping(bytes => mapping(uint64 => bytes32)))",
        "numberOfBytes": "32",
        "value": "t_mapping(t_bytes_memory_ptr,t_mapping(t_uint64,t_bytes32))"
      },
      "t_mapping(t_uint16,t_mapping(t_uint16,t_uint256))": {
        "encoding": "mapping",
        "key": "t_uint16",
        "label": "mapping(uint16 => mapping(uint16 => uint256))",
        "numberOfBytes": "32",
        "value": "t_mapping(t_uint16,t_uint256)"
      },
      "t_mapping(t_uint16,t_uint256)": {
        "encoding": "mapping",
        "key": "t_uint16",
        "label": "mapping(uint16 => uint256)",
        "numberOfBytes": "32",
        "value": "t_uint256"
      },
      "t_mapping(t_uint64,t_bytes32)": {
        "encoding": "mapping",
        "key": "t_uint64",
        "label": "mapping(uint64 => bytes32)",
        "numberOfBytes": "32",
        "value": "t_bytes32"
      },
      "t_uint16": {
        "encoding": "inplace",
        "label": "uint16",
        "numberOfBytes": "2"
      },
      "t_uint256": {
        "encoding": "inplace",
        "label": "uint256",
        "numberOfBytes": "32"
      },
      "t_uint64": {
        "encoding": "inplace",
        "label": "uint64",
        "numberOfBytes": "8"
      }
    }
  }
}