{
  "address": "0x3B0E35Ceee351DAAB3606f0950A40001ec78bF94",
  "abi": [
    {
      "inputs": [
        {
          "internalType": "address",
          "name": "_bridge",
          "type": "address"
        }
      ],
      "stateMutability": "nonpayable",
      "type": "constructor"
    },
    {
      "anonymous": false,
      "inputs": [
        {
          "indexed": true,
          "internalType": "address",
          "name": "owner",
          "type": "address"
        },
        {
          "indexed": true,
          "internalType": "address",
          "name": "spender",
          "type": "address"
        },
        {
          "indexed": false,
          "internalType": "uint256",
          "name": "value",
          "type": "uint256"
        }
      ],
      "name": "Approval",
      "type": "event"
    },
    {
      "anonymous": false,
      "inputs": [
        {
          "indexed": true,
          "internalType": "address",
          "name": "from",
          "type": "address"
        },
        {
          "indexed": true,
          "internalType": "address",
          "name": "to",
          "type": "address"
        },
        {
          "indexed": false,
          "internalType": "uint256",
          "name": "value",
          "type": "uint256"
        }
      ],
      "name": "Transfer",
      "type": "event"
    },
    {
      "inputs": [
        {
          "internalType": "address",
          "name": "owner",
          "type": "address"
        },
        {
          "internalType": "address",
          "name": "spender",
          "type": "address"
        }
      ],
      "name": "allowance",
      "outputs": [
        {
          "internalType": "uint256",
          "name": "",
          "type": "uint256"
        }
      ],
      "stateMutability": "view",
      "type": "function"
    },
    {
      "inputs": [
        {
          "internalType": "address",
          "name": "spender",
          "type": "address"
        },
        {
          "internalType": "uint256",
          "name": "amount",
          "type": "uint256"
        }
      ],
      "name": "approve",
      "outputs": [
        {
          "internalType": "bool",
          "name": "",
          "type": "bool"
        }
      ],
      "stateMutability": "nonpayable",
      "type": "function"
    },
    {
      "inputs": [
        {
          "internalType": "address",
          "name": "account",
          "type": "address"
        }
      ],
      "name": "balanceOf",
      "outputs": [
        {
          "internalType": "uint256",
          "name": "",
          "type": "uint256"
        }
      ],
      "stateMutability": "view",
      "type": "function"
    },
    {
      "inputs": [],
      "name": "bridge",
      "outputs": [
        {
          "internalType": "address",
          "name": "",
          "type": "address"
        }
      ],
      "stateMutability": "view",
      "type": "function"
    },
    {
      "inputs": [
        {
          "internalType": "address",
          "name": "_from",
          "type": "address"
        },
        {
          "internalType": "uint256",
          "name": "_amount",
          "type": "uint256"
        }
      ],
      "name": "burn",
      "outputs": [],
      "stateMutability": "nonpayable",
      "type": "function"
    },
    {
      "inputs": [],
      "name": "decimals",
      "outputs": [
        {
          "internalType": "uint8",
          "name": "",
          "type": "uint8"
        }
      ],
      "stateMutability": "view",
      "type": "function"
    },
    {
      "inputs": [
        {
          "internalType": "address",
          "name": "spender",
          "type": "address"
        },
        {
          "internalType": "uint256",
          "name": "subtractedValue",
          "type": "uint256"
        }
      ],
      "name": "decreaseAllowance",
      "outputs": [
        {
          "internalType": "bool",
          "name": "",
          "type": "bool"
        }
      ],
      "stateMutability": "nonpayable",
      "type": "function"
    },
    {
      "inputs": [
        {
          "internalType": "address",
          "name": "spender",
          "type": "address"
        },
        {
          "internalType": "uint256",
          "name": "addedValue",
          "type": "uint256"
        }
      ],
      "name": "increaseAllowance",
      "outputs": [
        {
          "internalType": "bool",
          "name": "",
          "type": "bool"
        }
      ],
      "stateMutability": "nonpayable",
      "type": "function"
    },
    {
      "inputs": [
        {
          "internalType": "address",
          "name": "_to",
          "type": "address"
        },
        {
          "internalType": "uint256",
          "name": "_amount",
          "type": "uint256"
        }
      ],
      "name": "mint",
      "outputs": [],
      "stateMutability": "nonpayable",
      "type": "function"
    },
    {
      "inputs": [],
      "name": "name",
      "outputs": [
        {
          "internalType": "string",
          "name": "",
          "type": "string"
        }
      ],
      "stateMutability": "view",
      "type": "function"
    },
    {
      "inputs": [],
      "name": "symbol",
      "outputs": [
        {
          "internalType": "string",
          "name": "",
          "type": "string"
        }
      ],
      "stateMutability": "view",
      "type": "function"
    },
    {
      "inputs": [],
      "name": "totalSupply",
      "outputs": [
        {
          "internalType": "uint256",
          "name": "",
          "type": "uint256"
        }
      ],
      "stateMutability": "view",
      "type": "function"
    },
    {
      "inputs": [
        {
          "internalType": "address",
          "name": "to",
          "type": "address"
        },
        {
          "internalType": "uint256",
          "name": "amount",
          "type": "uint256"
        }
      ],
      "name": "transfer",
      "outputs": [
        {
          "internalType": "bool",
          "name": "",
          "type": "bool"
        }
      ],
      "stateMutability": "nonpayable",
      "type": "function"
    },
    {
      "inputs": [
        {
          "internalType": "address",
          "name": "from",
          "type": "address"
        },
        {
          "internalType": "address",
          "name": "to",
          "type": "address"
        },
        {
          "internalType": "uint256",
          "name": "amount",
          "type": "uint256"
        }
      ],
      "name": "transferFrom",
      "outputs": [
        {
          "internalType": "bool",
          "name": "",
          "type": "bool"
        }
      ],
      "stateMutability": "nonpayable",
      "type": "function"
    }
  ],
  "transactionHash": "0x91a6216fb1794efec1729606e6588e4269fb3e6e95af52a8fd1716d9d1838b7e",
  "args": [
    "0x6354bd1fA7a8BfE023873bdFe5d946eFA397D826"
  ],
  "numDeployments": 1,
  "solcInputHash": "438cf3dd8177f60d64b6dbbf472a3b9d",
  "bytecode": "0x60c06040523480156200001157600080fd5b5060405162000ee638038062000ee6833981016040819052620000349162000117565b806040518060400160405280600d81526020016c2bb930b83832b21022ba3432b960991b815250604051806040016040528060048152602001630ae8aa8960e31b8152506012828281600390816200008d9190620001ee565b5060046200009c8282620001ee565b5050506001600160a01b038416620000fa5760405162461bcd60e51b815260206004820152601c60248201527f5772617070656445524332303a20696e76616c69642062726964676500000000604482015260640160405180910390fd5b6001600160a01b03909316608052505060ff1660a05250620002ba565b6000602082840312156200012a57600080fd5b81516001600160a01b03811681146200014257600080fd5b9392505050565b634e487b7160e01b600052604160045260246000fd5b600181811c908216806200017457607f821691505b6020821081036200019557634e487b7160e01b600052602260045260246000fd5b50919050565b601f821115620001e957600081815260208120601f850160051c81016020861015620001c45750805b601f850160051c820191505b81811015620001e557828155600101620001d0565b5050505b505050565b81516001600160401b038111156200020a576200020a62000149565b62000222816200021b84546200015f565b846200019b565b602080601f8311600181146200025a5760008415620002415750858301515b600019600386901b1c1916600185901b178555620001e5565b600085815260208120601f198616915b828110156200028b578886015182559484019460019091019084016200026a565b5085821015620002aa5787850151600019600388901b60f8161c191681555b5050505050600190811b01905550565b60805160a051610bf8620002ee600039600061015c0152600081816102300152818161036701526103d50152610bf86000f3fe608060405234801561001057600080fd5b50600436106100ea5760003560e01c806370a082311161008c578063a457c2d711610066578063a457c2d7146101f2578063a9059cbb14610205578063dd62ed3e14610218578063e78cea921461022b57600080fd5b806370a08231146101ae57806395d89b41146101d75780639dc29fac146101df57600080fd5b806323b872dd116100c857806323b872dd14610142578063313ce56714610155578063395093511461018657806340c10f191461019957600080fd5b806306fdde03146100ef578063095ea7b31461010d57806318160ddd14610130575b600080fd5b6100f761026a565b60405161010491906109fc565b60405180910390f35b61012061011b366004610a66565b6102fc565b6040519015158152602001610104565b6002545b604051908152602001610104565b610120610150366004610a90565b610316565b60405160ff7f0000000000000000000000000000000000000000000000000000000000000000168152602001610104565b610120610194366004610a66565b61033a565b6101ac6101a7366004610a66565b61035c565b005b6101346101bc366004610acc565b6001600160a01b031660009081526020819052604090205490565b6100f76103bb565b6101ac6101ed366004610a66565b6103ca565b610120610200366004610a66565b61041c565b610120610213366004610a66565b610497565b610134610226366004610aee565b6104a5565b6102527f000000000000000000000000000000000000000000000000000000000000000081565b6040516001600160a01b039091168152602001610104565b60606003805461027990610b21565b80601f01602080910402602001604051908101604052809291908181526020018280546102a590610b21565b80156102f25780601f106102c7576101008083540402835291602001916102f2565b820191906000526020600020905b8154815290600101906020018083116102d557829003601f168201915b5050505050905090565b60003361030a8185856104d0565b60019150505b92915050565b6000336103248582856105f5565b61032f85858561066f565b506001949350505050565b60003361030a81858561034d83836104a5565b6103579190610b5b565b6104d0565b336001600160a01b037f000000000000000000000000000000000000000000000000000000000000000016146103ad5760405162461bcd60e51b81526004016103a490610b7c565b60405180910390fd5b6103b78282610813565b5050565b60606004805461027990610b21565b336001600160a01b037f000000000000000000000000000000000000000000000000000000000000000016146104125760405162461bcd60e51b81526004016103a490610b7c565b6103b782826108d2565b6000338161042a82866104a5565b90508381101561048a5760405162461bcd60e51b815260206004820152602560248201527f45524332303a2064656372656173656420616c6c6f77616e63652062656c6f77604482015264207a65726f60d81b60648201526084016103a4565b61032f82868684036104d0565b60003361030a81858561066f565b6001600160a01b03918216600090815260016020908152604080832093909416825291909152205490565b6001600160a01b0383166105325760405162461bcd60e51b8152602060048201526024808201527f45524332303a20617070726f76652066726f6d20746865207a65726f206164646044820152637265737360e01b60648201526084016103a4565b6001600160a01b0382166105935760405162461bcd60e51b815260206004820152602260248201527f45524332303a20617070726f766520746f20746865207a65726f206164647265604482015261737360f01b60648201526084016103a4565b6001600160a01b0383811660008181526001602090815260408083209487168084529482529182902085905590518481527f8c5be1e5ebec7d5bd14f71427d1e84f3dd0314c0f7b2291e5b200ac8c7c3b92591015b60405180910390a3505050565b600061060184846104a5565b90506000198114610669578181101561065c5760405162461bcd60e51b815260206004820152601d60248201527f45524332303a20696e73756666696369656e7420616c6c6f77616e636500000060448201526064016103a4565b61066984848484036104d0565b50505050565b6001600160a01b0383166106d35760405162461bcd60e51b815260206004820152602560248201527f45524332303a207472616e736665722066726f6d20746865207a65726f206164604482015264647265737360d81b60648201526084016103a4565b6001600160a01b0382166107355760405162461bcd60e51b815260206004820152602360248201527f45524332303a207472616e7366657220746f20746865207a65726f206164647260448201526265737360e81b60648201526084016103a4565b6001600160a01b038316600090815260208190526040902054818110156107ad5760405162461bcd60e51b815260206004820152602660248201527f45524332303a207472616e7366657220616d6f756e7420657863656564732062604482015265616c616e636560d01b60648201526084016103a4565b6001600160a01b03848116600081815260208181526040808320878703905593871680835291849020805487019055925185815290927fddf252ad1be2c89b69c2b068fc378daa952ba7f163c4a11628f55a4df523b3ef910160405180910390a3610669565b6001600160a01b0382166108695760405162461bcd60e51b815260206004820152601f60248201527f45524332303a206d696e7420746f20746865207a65726f20616464726573730060448201526064016103a4565b806002600082825461087b9190610b5b565b90915550506001600160a01b038216600081815260208181526040808320805486019055518481527fddf252ad1be2c89b69c2b068fc378daa952ba7f163c4a11628f55a4df523b3ef910160405180910390a35050565b6001600160a01b0382166109325760405162461bcd60e51b815260206004820152602160248201527f45524332303a206275726e2066726f6d20746865207a65726f206164647265736044820152607360f81b60648201526084016103a4565b6001600160a01b038216600090815260208190526040902054818110156109a65760405162461bcd60e51b815260206004820152602260248201527f45524332303a206275726e20616d6f756e7420657863656564732062616c616e604482015261636560f01b60648201526084016103a4565b6001600160a01b0383166000818152602081815260408083208686039055600280548790039055518581529192917fddf252ad1be2c89b69c2b068fc378daa952ba7f163c4a11628f55a4df523b3ef91016105e8565b600060208083528351808285015260005b81811015610a2957858101830151858201604001528201610a0d565b506000604082860101526040601f19601f8301168501019250505092915050565b80356001600160a01b0381168114610a6157600080fd5b919050565b60008060408385031215610a7957600080fd5b610a8283610a4a565b946020939093013593505050565b600080600060608486031215610aa557600080fd5b610aae84610a4a565b9250610abc60208501610a4a565b9150604084013590509250925092565b600060208284031215610ade57600080fd5b610ae782610a4a565b9392505050565b60008060408385031215610b0157600080fd5b610b0a83610a4a565b9150610b1860208401610a4a565b90509250929050565b600181811c90821680610b3557607f821691505b602082108103610b5557634e487b7160e01b600052602260045260246000fd5b50919050565b8082018082111561031057634e487b7160e01b600052601160045260246000fd5b60208082526026908201527f5772617070656445524332303a2063616c6c6572206973206e6f74207468652060408201526562726964676560d01b60608201526080019056fea26469706673582212206f935d2c713a94164c7ce945159eb65662779ae43a61a590d558d09351db1a4a64736f6c63430008110033",
  "devdoc": {
    "kind": "dev",
    "methods": {
      "allowance(address,address)": {
        "details": "See {IERC20-allowance}."
      },
      "approve(address,uint256)": {
        "details": "See {IERC20-approve}. NOTE: If `amount` is the maximum `uint256`, the allowance is not updated on `transferFrom`. This is semantically equivalent to an infinite approval. Requirements: - `spender` cannot be the zero address."
      },
      "balanceOf(address)": {
        "details": "See {IERC20-balanceOf}."
      },
      "burn(address,uint256)": {
        "details": "Called only by the bridge"
      },
      "decimals()": {
        "details": "Overrides the default value of 18",
        "returns": {
          "_0": "number of decimal places"
        }
      },
      "decreaseAllowance(address,uint256)": {
        "details": "Atomically decreases the allowance granted to `spender` by the caller. This is an alternative to {approve} that can be used as a mitigation for problems described in {IERC20-approve}. Emits an {Approval} event indicating the updated allowance. Requirements: - `spender` cannot be the zero address. - `spender` must have allowance for the caller of at least `subtractedValue`."
      },
      "increaseAllowance(address,uint256)": {
        "details": "Atomically increases the allowance granted to `spender` by the caller. This is an alternative to {approve} that can be used as a mitigation for problems described in {IERC20-approve}. Emits an {Approval} event indicating the updated allowance. Requirements: - `spender` cannot be the zero address."
      },
      "mint(address,uint256)": {
        "details": "called only by the bridge"
      },
      "name()": {
        "details": "Returns the name of the token."
      },
      "symbol()": {
        "details": "Returns the symbol of the token, usually a shorter version of the name."
      },
      "totalSupply()": {
        "details": "See {IERC20-totalSupply}."
      },
      "transfer(address,uint256)": {
        "details": "See {IERC20-transfer}. Requirements: - `to` cannot be the zero address. - the caller must have a balance of at least `amount`."
      },
      "transferFrom(address,address,uint256)": {
        "details": "See {IERC20-transferFrom}. Emits an {Approval} event indicating the updated allowance. This is not required by the EIP. See the note at the beginning of {ERC20}. NOTE: Does not update the allowance if the current allowance is the maximum `uint256`. Requirements: - `from` and `to` cannot be the zero address. - `from` must have a balance of at least `amount`. - the caller must have allowance for ``from``'s tokens of at least `amount`."
      }
    },
    "version": 1
  },
  "userdoc": {
    "kind": "user",
    "methods": {
      "burn(address,uint256)": {
        "notice": "Destroys `amount` tokens from `account`, reducing the total supply"
      },
      "decimals()": {
        "notice": "Number of decimal places used to represent the token's smallest unit"
      },
      "mint(address,uint256)": {
        "notice": "Creates `amount` tokens and assigns them to `account`, increasing the total supply"
      }
    },
    "version": 1
  },
  "storageLayout": {
    "storage": [
      {
        "astId": 3075,
        "contract": "contracts/wrappedTokens/WETH.sol:WETH",
        "label": "_balances",
        "offset": 0,
        "slot": "0",
        "type": "t_mapping(t_address,t_uint256)"
      },
      {
        "astId": 3081,
        "contract": "contracts/wrappedTokens/WETH.sol:WETH",
        "label": "_allowances",
        "offset": 0,
        "slot": "1",
        "type": "t_mapping(t_address,t_mapping(t_address,t_uint256))"
      },
      {
        "astId": 3083,
        "contract": "contracts/wrappedTokens/WETH.sol:WETH",
        "label": "_totalSupply",
        "offset": 0,
        "slot": "2",
        "type": "t_uint256"
      },
      {
        "astId": 3085,
        "contract": "contracts/wrappedTokens/WETH.sol:WETH",
        "label": "_name",
        "offset": 0,
        "slot": "3",
        "type": "t_string_storage"
      },
      {
        "astId": 3087,
        "contract": "contracts/wrappedTokens/WETH.sol:WETH",
        "label": "_symbol",
        "offset": 0,
        "slot": "4",
        "type": "t_string_storage"
      }
    ],
    "types": {
      "t_address": {
        "encoding": "inplace",
        "label": "address",
        "numberOfBytes": "20"
      },
      "t_mapping(t_address,t_mapping(t_address,t_uint256))": {
        "encoding": "mapping",
        "key": "t_address",
        "label": "mapping(address => mapping(address => uint256))",
        "numberOfBytes": "32",
        "value": "t_mapping(t_address,t_uint256)"
      },
      "t_mapping(t_address,t_uint256)": {
        "encoding": "mapping",
        "key": "t_address",
        "label": "mapping(address => uint256)",
        "numberOfBytes": "32",
        "value": "t_uint256"
      },
      "t_string_storage": {
        "encoding": "bytes",
        "label": "string",
        "numberOfBytes": "32"
      },
      "t_uint256": {
        "encoding": "inplace",
        "label": "uint256",
        "numberOfBytes": "32"
      }
    }
  }
}